{
  "contractName": "TimelockFactory",
  "abi": [
    {
      "constant": true,
      "inputs": [
        {
          "internalType": "uint256",
          "name": "",
          "type": "uint256"
        }
      ],
      "name": "deployedCampaigns",
      "outputs": [
        {
          "internalType": "contract TimelockToken",
          "name": "",
          "type": "address"
        }
      ],
      "payable": false,
      "stateMutability": "view",
      "type": "function"
    },
    {
      "constant": false,
      "inputs": [
        {
          "internalType": "contract Token",
          "name": "_token",
          "type": "address"
        },
        {
          "internalType": "string",
          "name": "_nameCampaign",
          "type": "string"
        },
        {
          "internalType": "address",
          "name": "_beneficiary",
          "type": "address"
        },
        {
          "internalType": "uint256",
          "name": "_releaseTime",
          "type": "uint256"
        },
        {
          "internalType": "uint256",
          "name": "_maxamount",
          "type": "uint256"
        }
      ],
      "name": "createCampaign",
      "outputs": [],
      "payable": false,
      "stateMutability": "nonpayable",
      "type": "function"
    },
    {
      "constant": true,
      "inputs": [],
      "name": "getDeployedCampaigns",
      "outputs": [
        {
          "internalType": "contract TimelockToken[]",
          "name": "",
          "type": "address[]"
        }
      ],
      "payable": false,
      "stateMutability": "view",
      "type": "function"
    }
  ],
  "bytecode": "0x608060405234801561001057600080fd5b50611675806100206000396000f3fe608060405234801561001057600080fd5b50600436106100415760003560e01c806310af815314610046578063339d50a5146101555780634acb9d4f146101c3575b600080fd5b610153600480360360a081101561005c57600080fd5b81019080803573ffffffffffffffffffffffffffffffffffffffff1690602001909291908035906020019064010000000081111561009957600080fd5b8201836020820111156100ab57600080fd5b803590602001918460018302840111640100000000831117156100cd57600080fd5b91908080601f016020809104026020016040519081016040528093929190818152602001838380828437600081840152601f19601f820116905080830192505050505050509192919290803573ffffffffffffffffffffffffffffffffffffffff1690602001909291908035906020019092919080359060200190929190505050610222565b005b6101816004803603602081101561016b57600080fd5b81019080803590602001909291905050506103d9565b604051808273ffffffffffffffffffffffffffffffffffffffff1673ffffffffffffffffffffffffffffffffffffffff16815260200191505060405180910390f35b6101cb610415565b6040518080602001828103825283818151815260200191508051906020019060200280838360005b8381101561020e5780820151818401526020810190506101f3565b505050509050019250505060405180910390f35b6000858585858533604051610236906104a3565b808773ffffffffffffffffffffffffffffffffffffffff1673ffffffffffffffffffffffffffffffffffffffff168152602001806020018673ffffffffffffffffffffffffffffffffffffffff1673ffffffffffffffffffffffffffffffffffffffff1681526020018581526020018481526020018373ffffffffffffffffffffffffffffffffffffffff1673ffffffffffffffffffffffffffffffffffffffff168152602001828103825287818151815260200191508051906020019080838360005b838110156103155780820151818401526020810190506102fa565b50505050905090810190601f1680156103425780820380516001836020036101000a031916815260200191505b50975050505050505050604051809103906000f080158015610368573d6000803e3d6000fd5b50905060008190806001815401808255809150509060018203906000526020600020016000909192909190916101000a81548173ffffffffffffffffffffffffffffffffffffffff021916908373ffffffffffffffffffffffffffffffffffffffff16021790555050505050505050565b600081815481106103e657fe5b906000526020600020016000915054906101000a900473ffffffffffffffffffffffffffffffffffffffff1681565b6060600080548060200260200160405190810160405280929190818152602001828054801561049957602002820191906000526020600020905b8160009054906101000a900473ffffffffffffffffffffffffffffffffffffffff1673ffffffffffffffffffffffffffffffffffffffff168152602001906001019080831161044f575b5050505050905090565b611190806104b18339019056fe60806040523480156200001157600080fd5b506040516200119038038062001190833981810160405260c08110156200003757600080fd5b8101908080519060200190929190805160405193929190846401000000008211156200006257600080fd5b838201915060208201858111156200007957600080fd5b82518660018202830111640100000000821117156200009757600080fd5b8083526020830192505050908051906020019080838360005b83811015620000cd578082015181840152602081019050620000b0565b50505050905090810190601f168015620000fb5780820380516001836020036101000a031916815260200191505b50604052602001805190602001909291908051906020019092919080519060200190929190805190602001909291905050504283116200013a57600080fd5b600082116200014857600080fd5b85600160006101000a81548173ffffffffffffffffffffffffffffffffffffffff021916908373ffffffffffffffffffffffffffffffffffffffff1602179055508460029080519060200190620001a19291906200023e565b5083600360006101000a81548173ffffffffffffffffffffffffffffffffffffffff021916908373ffffffffffffffffffffffffffffffffffffffff160217905550826004819055508160058190555080600660006101000a81548173ffffffffffffffffffffffffffffffffffffffff021916908373ffffffffffffffffffffffffffffffffffffffff160217905550505050505050620002ed565b828054600181600116156101000203166002900490600052602060002090601f016020900481019282601f106200028157805160ff1916838001178555620002b2565b82800160010185558215620002b2579182015b82811115620002b157825182559160200191906001019062000294565b5b509050620002c19190620002c5565b5090565b620002ea91905b80821115620002e6576000816000905550600101620002cc565b5090565b90565b610e9380620002fd6000396000f3fe608060405234801561001057600080fd5b50600436106100a95760003560e01c806386d1a69f1161007157806386d1a69f1461028a5780638a9cfd5514610294578063b02a801614610379578063b91d4001146103fc578063f06f56681461041a578063fc0c546a14610438576100a9565b806303441006146100ae5780632278f36b146100dc57806338af3eed1461010a57806345653a6d1461015457806381d12c581461019e575b600080fd5b6100da600480360360208110156100c457600080fd5b8101908080359060200190929190505050610482565b005b610108600480360360208110156100f257600080fd5b810190808035906020019092919050505061064a565b005b61011261084e565b604051808273ffffffffffffffffffffffffffffffffffffffff1673ffffffffffffffffffffffffffffffffffffffff16815260200191505060405180910390f35b61015c610874565b604051808273ffffffffffffffffffffffffffffffffffffffff1673ffffffffffffffffffffffffffffffffffffffff16815260200191505060405180910390f35b6101ca600480360360208110156101b457600080fd5b810190808035906020019092919050505061089a565b60405180806020018581526020018473ffffffffffffffffffffffffffffffffffffffff1673ffffffffffffffffffffffffffffffffffffffff16815260200183151515158152602001828103825286818151815260200191508051906020019080838360005b8381101561024c578082015181840152602081019050610231565b50505050905090810190601f1680156102795780820380516001836020036101000a031916815260200191505b509550505050505060405180910390f35b61029261099c565b005b610377600480360360608110156102aa57600080fd5b81019080803590602001906401000000008111156102c757600080fd5b8201836020820111156102d957600080fd5b803590602001918460018302840111640100000000831117156102fb57600080fd5b91908080601f016020809104026020016040519081016040528093929190818152602001838380828437600081840152601f19601f82011690508083019250505050505050919291929080359060200190929190803573ffffffffffffffffffffffffffffffffffffffff169060200190929190505050610ba0565b005b610381610ca9565b6040518080602001828103825283818151815260200191508051906020019080838360005b838110156103c15780820151818401526020810190506103a6565b50505050905090810190601f1680156103ee5780820380516001836020036101000a031916815260200191505b509250505060405180910390f35b610404610d47565b6040518082815260200191505060405180910390f35b610422610d4d565b6040518082815260200191505060405180910390f35b610440610d53565b604051808273ffffffffffffffffffffffffffffffffffffffff1673ffffffffffffffffffffffffffffffffffffffff16815260200191505060405180910390f35b600660009054906101000a900473ffffffffffffffffffffffffffffffffffffffff1673ffffffffffffffffffffffffffffffffffffffff163373ffffffffffffffffffffffffffffffffffffffff16146104dc57600080fd5b60008082815481106104ea57fe5b906000526020600020906003020190508060020160149054906101000a900460ff161561051657600080fd5b60008160020160009054906101000a900473ffffffffffffffffffffffffffffffffffffffff169050600160009054906101000a900473ffffffffffffffffffffffffffffffffffffffff1673ffffffffffffffffffffffffffffffffffffffff1663a9059cbb8284600101546040518363ffffffff1660e01b8152600401808373ffffffffffffffffffffffffffffffffffffffff1673ffffffffffffffffffffffffffffffffffffffff16815260200182815260200192505050602060405180830381600087803b1580156105ec57600080fd5b505af1158015610600573d6000803e3d6000fd5b505050506040513d602081101561061657600080fd5b81019080805190602001909291905050505060018260020160146101000a81548160ff021916908315150217905550505050565b6000600160009054906101000a900473ffffffffffffffffffffffffffffffffffffffff1673ffffffffffffffffffffffffffffffffffffffff166370a08231306040518263ffffffff1660e01b8152600401808273ffffffffffffffffffffffffffffffffffffffff1673ffffffffffffffffffffffffffffffffffffffff16815260200191505060206040518083038186803b1580156106eb57600080fd5b505afa1580156106ff573d6000803e3d6000fd5b505050506040513d602081101561071557600080fd5b810190808051906020019092919050505090506000811161073557600080fd5b600554821061074357600080fd5b600160009054906101000a900473ffffffffffffffffffffffffffffffffffffffff1673ffffffffffffffffffffffffffffffffffffffff1663a9059cbb600360009054906101000a900473ffffffffffffffffffffffffffffffffffffffff16846040518363ffffffff1660e01b8152600401808373ffffffffffffffffffffffffffffffffffffffff1673ffffffffffffffffffffffffffffffffffffffff16815260200182815260200192505050602060405180830381600087803b15801561080e57600080fd5b505af1158015610822573d6000803e3d6000fd5b505050506040513d602081101561083857600080fd5b8101908080519060200190929190505050505050565b600360009054906101000a900473ffffffffffffffffffffffffffffffffffffffff1681565b600660009054906101000a900473ffffffffffffffffffffffffffffffffffffffff1681565b600081815481106108a757fe5b9060005260206000209060030201600091509050806000018054600181600116156101000203166002900480601f0160208091040260200160405190810160405280929190818152602001828054600181600116156101000203166002900480156109535780601f1061092857610100808354040283529160200191610953565b820191906000526020600020905b81548152906001019060200180831161093657829003601f168201915b5050505050908060010154908060020160009054906101000a900473ffffffffffffffffffffffffffffffffffffffff16908060020160149054906101000a900460ff16905084565b6004544210156109ab57600080fd5b6000600160009054906101000a900473ffffffffffffffffffffffffffffffffffffffff1673ffffffffffffffffffffffffffffffffffffffff166370a08231306040518263ffffffff1660e01b8152600401808273ffffffffffffffffffffffffffffffffffffffff1673ffffffffffffffffffffffffffffffffffffffff16815260200191505060206040518083038186803b158015610a4c57600080fd5b505afa158015610a60573d6000803e3d6000fd5b505050506040513d6020811015610a7657600080fd5b8101908080519060200190929190505050905060008111610a9657600080fd5b600160009054906101000a900473ffffffffffffffffffffffffffffffffffffffff1673ffffffffffffffffffffffffffffffffffffffff1663a9059cbb600360009054906101000a900473ffffffffffffffffffffffffffffffffffffffff16836040518363ffffffff1660e01b8152600401808373ffffffffffffffffffffffffffffffffffffffff1673ffffffffffffffffffffffffffffffffffffffff16815260200182815260200192505050602060405180830381600087803b158015610b6157600080fd5b505af1158015610b75573d6000803e3d6000fd5b505050506040513d6020811015610b8b57600080fd5b81019080805190602001909291905050505050565b610ba8610d79565b60405180608001604052808581526020018481526020018373ffffffffffffffffffffffffffffffffffffffff168152602001600015158152509050600081908060018154018082558091505090600182039060005260206000209060030201600090919290919091506000820151816000019080519060200190610c2e929190610db9565b506020820151816001015560408201518160020160006101000a81548173ffffffffffffffffffffffffffffffffffffffff021916908373ffffffffffffffffffffffffffffffffffffffff16021790555060608201518160020160146101000a81548160ff02191690831515021790555050505050505050565b60028054600181600116156101000203166002900480601f016020809104026020016040519081016040528092919081815260200182805460018160011615610100020316600290048015610d3f5780601f10610d1457610100808354040283529160200191610d3f565b820191906000526020600020905b815481529060010190602001808311610d2257829003601f168201915b505050505081565b60045481565b60055481565b600160009054906101000a900473ffffffffffffffffffffffffffffffffffffffff1681565b60405180608001604052806060815260200160008152602001600073ffffffffffffffffffffffffffffffffffffffff1681526020016000151581525090565b828054600181600116156101000203166002900490600052602060002090601f016020900481019282601f10610dfa57805160ff1916838001178555610e28565b82800160010185558215610e28579182015b82811115610e27578251825591602001919060010190610e0c565b5b509050610e359190610e39565b5090565b610e5b91905b80821115610e57576000816000905550600101610e3f565b5090565b9056fea265627a7a723158205a7e55f767970ee6209d003c62132b6c9c3f05bd4aaa84aa822d12ceaa4c169164736f6c63430005100032a265627a7a723158203811acea61bf222a9fbc243c9b447e2571692c390ab4d0d5c8560083132253d464736f6c63430005100032",
  "source": "pragma solidity ^0.5.0;\r\n\r\n\r\n\r\nimport \"./Token.sol\";\r\n\r\n\r\ncontract TimelockFactory {\r\n\r\n       \r\n    TimelockToken[] public deployedCampaigns;\r\n                            \r\n    function createCampaign(Token _token, string memory _nameCampaign, address _beneficiary, uint256 _releaseTime, uint256 _maxamount) public {\r\n        TimelockToken newCampaign = new TimelockToken(_token, _nameCampaign, _beneficiary, _releaseTime, _maxamount, msg.sender);\r\n        deployedCampaigns.push(newCampaign);\r\n    }\r\n    \r\n    function getDeployedCampaigns() public view returns (TimelockToken[] memory) {\r\n        return deployedCampaigns;\r\n    }\r\n}\r\n\r\ncontract TimelockToken {\r\n    struct Request {\r\n        string description;\r\n        uint value;\r\n        address recipient;\r\n        bool complete;\r\n    }\r\n    \r\n\r\n  Request[] public requests;\r\n  Token public token;\r\n  string public nameCampaign;\r\n  address public beneficiary;\r\n  uint256 public releaseTime;\r\n  uint256 public maxamount;\r\n  address public creater;\r\n\r\n  constructor(\r\n    Token _token,\r\n    string memory _nameCampaign,\r\n    address _beneficiary,\r\n    uint256 _releaseTime,\r\n    uint256 _maxamount,\r\n    address _creater\r\n  )\r\n    public\r\n  {\r\n    require(_releaseTime > block.timestamp);\r\n    require(_maxamount > 0);\r\n    token = _token;\r\n    nameCampaign = _nameCampaign;\r\n    beneficiary = _beneficiary;\r\n    releaseTime = _releaseTime;\r\n    maxamount = _maxamount;\r\n    creater = _creater;\r\n    \r\n  }\r\n    \r\n\r\n\r\n  function release() public {\r\n    require(block.timestamp >= releaseTime);\r\n\r\n    uint256 amount = token.balanceOf(address(this));\r\n    require(amount > 0);\r\n\r\n    token.transfer(beneficiary, amount);\r\n  }\r\n  \r\n    function releaseAmount(uint256 value) public {\r\n    uint256 amount = token.balanceOf(address(this));\r\n    require(amount > 0);\r\n    require(value < maxamount);\r\n\r\n    token.transfer(beneficiary, value);\r\n  }\r\n  \r\n  \r\n    function createRequest(string memory description, uint value, address recipient) public  {\r\n            Request memory newRequest = Request({\r\n                description: description,\r\n                value: value,\r\n                recipient: recipient,\r\n                complete: false\r\n            });\r\n            \r\n            requests.push(newRequest);\r\n        }\r\n\r\n    function finalizeRequest(uint index) public restricted {\r\n            Request storage request = requests[index];\r\n            \r\n            require(!request.complete);\r\n            address recipientRequest = request.recipient;\r\n            \r\n            token.transfer(recipientRequest,request.value);\r\n            request.complete = true;\r\n            \r\n            \r\n            //request.recipient.transfer(request.value);\r\n    }\r\n    \r\n    //manager can call\r\n    modifier restricted() {\r\n        require(msg.sender == creater);\r\n        _;\r\n    }\r\n}",
  "sourcePath": "D:\\12-3-2020\\contracts\\TimelockFactory.sol",
  "compiler": {
    "name": "solc",
    "version": "0.5.16+commit.9c3226ce.Emscripten.clang"
  },
  "schemaVersion": "3.0.23",
  "updatedAt": "2020-04-05T09:53:15.239Z",
  "networkType": "ethereum",
  "devdoc": {
    "methods": {}
  },
  "userdoc": {
    "methods": {}
  }
}